03300010        2020716660000180039900000618799                         INSAT COMERCIO E SERVICOS DE S               BANCO SANTANDER          104122020      000001040                                                                          
03300011R01  030 2020716660000180                    039900000618799     INSAT COMERCIO E SERVICOS DE S                                                                                0000000104122020                                         
0330001300001P 010399901300465170130046517  0000400000024511  0000000000000401911202000000000000790000000 04N191120202191120200000000033000000000000000000000000000000000000000000000000000000000000000000000000000400000024300300000           
0330001300002Q 011000011391074882Nilton Joao de Almeidas                 Rua Itajuibe 540                        Itaim Paulista 08120470Sao Paulo000000SP0000000000000000                                        000000000000                   
0330001300003R 02304122020000000000000000                        220112020000000000200000                                                                                                                                                       
0330001300004P 010399901300465170130046517  0000410000035511  0000000000000411911202000000000000690000000 04N191120202191120200000000033000000000000000000000000000000000000000000000000000000000000000000000000000410000035300300000           
0330001300005Q 011000014249475883Marcelo Geraldo B Leite                 Avenida Joao 23 960                     Vila Formosa   03361000Sao Paulo000000SP0000000000000000                                        000000000000                   
0330001300006R 02304122020000000000000000                        220112020000000000200000                                                                                                                                                       
03300015         000008                                                                                                                                                                                                                         
03399999         000001000010                                                                                                                                                                                                                   